:020000040800F2
:10000000E8060020CD010008B7130008BB12000865
:10001000B5130008B50300086915000800000000CA
:10002000000000000000000000000000BB130008FA
:10003000B703000800000000B9130008BD13000852
:10004000E7010008E7010008E7010008E7010008F0
:10005000E7010008E7010008E7010008E7010008E0
:10006000E7010008E7010008E7010008E7010008D0
:10007000E7010008E7010008E7010008E7010008C0
:10008000E7010008E7010008D5020008E7010008C1
:10009000E7010008E7010008E7010008E7010008A0
:1000A000E7010008E7010008E7010008E701000890
:1000B000E7010008E7010008E7010008E701000880
:1000C000E7010008E7010008E7010008E701000870
:1000D000E7010008E7010008E7010008E701000860
:1000E000E7010008E7010008E7010008E701000850
:1000F000E7010008E7010008E7010008E701000840
:10010000E7010008E7010008E7010008E70100082F
:10011000E7010008E7010008E7010008E70100081F
:10012000E7010008E7010008E7010008E70100080F
:1001300000F002F800F03AF80AA090E8000C8244BF
:100140008344AAF10107DA4501D100F02FF8AFF29C
:10015000090EBAE80F0013F0010F18BFFB1A43F0A5
:1001600001031847B0140000D0140000103A24BF57
:1001700078C878C1FAD8520724BF30C830C144BF0C
:1001800004680C607047000000230024002500264E
:10019000103A28BF78C1FBD8520728BF30C148BFEA
:1001A0000B6070471FB51FBD10B510BD00F058F8AB
:1001B0001146FFF7F7FF01F0E9F900F076F803B414
:1001C000FFF7F2FF03BC00F07DF80000094880470C
:1001D00009480047FEE7FEE7FEE7FEE7FEE7FEE729
:1001E000FEE7FEE7FEE7FEE704480549054A064B41
:1001F000704700003714000831010008E8000020B3
:10020000E8060020E8020020E80200204FF000028B
:1002100000B5134694469646203922BFA0E80C50FC
:10022000A0E80C50B1F12001BFF4F7AF090728BFD7
:10023000A0E80C5048BF0CC05DF804EB890028BF53
:1002400040F8042B08BF704748BF20F8022B11F07C
:10025000804F18BF00F8012B7047704770477047F8
:10026000754600F02BF8AE4605006946534620F06F
:100270000700854618B020B5FFF7B6FFBDE820405F
:100280004FF000064FF000074FF000084FF0000B52
:1002900021F00701AC46ACE8C009ACE8C009ACE805
:1002A000C009ACE8C0098D46704710B50446AFF3ED
:1002B00000802046BDE81040FFF781BF004870472E
:1002C0008800002001491820ABBEFEE7260002008E
:1002D00070470000014800F0F5B800001000002051
:1002E00070B5044600688168C943C90717D18168A1
:1002F00021F00101816000F095FB05460AE000BF96
:1003000000F090FB401B022804D920688068C0439D
:10031000C00706D020688068C043C007F0D0002026
:1003200070BDA06A40F01000A062E06A40F00100D9
:10033000E062012070BD0000F8B50026044600967A
:1003400000688168C943C9072DD0816841F0010167
:100350008160164816490068B0FBF1F000E0401ECD
:1003600000900028FBD100F05DFB054616E000BFC1
:1003700000F058FB401B022810D920688068C04359
:10038000C0070BD0A06A40F01000A062E06A40F005
:100390000100E06284F824600120F8BD20688068D4
:1003A000C043C007E4D10020F8BD00000C000020CD
:1003B00040420F00FEE7704772B6FEE7704700004C
:1003C000F8B50024009490F824202546012A12D084
:1003D000012280F824204A681F23072A0DD20668CC
:1003E000776B521E02EB820293409F430B6893404F
:1003F0001F43776319E00220F8BD06680D2A0AD270
:10040000376BD21F02EB820293409F430B689340ED
:100410001F43376309E0F76A0D3A02EB820293400B
:100420009F430B6893401F43F7620A6807230668DF
:100430000A2A0AD3F7680A3A02EB420293409F4322
:100440008B6893401F43F76008E0376902EB420274
:1004500093409F438B6893401F4337610A68102A7B
:1004600001D0112A20D1124B02689A4217D1936809
:100470001B0219D4936843F40003936009681029A0
:1004800012D10C490C4A0968B1FBF2F101EB810170
:10049000490000E0491E00910029FBD104E0816A77
:1004A00041F020018162012480F824502046F8BDEB
:1004B000002401400C00002040420F0070470068FB
:1004C000C06C704770B50446006806684568A906A8
:1004D00025D5B10723D5A16AC90603D4A16A41F481
:1004E0000071A1628168C1F34241072910D1217BCB
:1004F00071B9416821F020014160A06A20F4807048
:10050000A062A06AC00403D4A06A40F00100A06207
:100510002046FFF7D3FF21686FF01200086028061D
:100520002ED570072CD5A06AC00603D4A06A40F46B
:100530000050A06220688168C1F30231072909D008
:100540004168490515D48168C1F34241072910D19A
:10055000217B71B9416821F080014160A06A20F4DB
:100560008050A062A06AC00503D4A06A40F00100D8
:10057000A0622046FFF722FF21686FF00C000860A0
:1005800068060CD5F0070AD0A06A40F48030A0625B
:10059000204600F095F821686FF00100086070BDFA
:1005A0002DE9F04104004FF000057FD0A06A00263D
:1005B00028B9E66284F82460204600F083F82046DB
:1005C000FFF78EFEA16AC90600D420B1A06A40F0F0
:1005D0001000A0626AE0A16A21F4885141F0020192
:1005E000A162334923688B42E16904D1B1F5402F00
:1005F00001D14FF40021277B4FF4807C41EA470270
:1006000061680A43A168614508D0012906D000212C
:1006100094F814E0BEF1010F02D00AE06146F7E75A
:10062000C7B1A76A47F02007A762E76A47F001074A
:10063000E7625F6827F469470F435F602368996842
:100640001C4F394011439960A16861450BD00129C5
:1006500009D00CE0DFF860E0A7690EEB47370F43E5
:1006600047F40061E5E7218A0D05A5F580152168AD
:10067000CB6A23F470032B43CB62216889680F4B4C
:100680001940914208D1E662A16A21F0020141F0CD
:100690000101A162BDE8F081A06A20F0020040F0F3
:1006A0001000A062E06A40F00100E0620120F1E782
:1006B000003C0140FDF7E1FF00E0FFFFFE0E1FFFE1
:1006C0007047000000B585B00021009101910291B2
:1006D000039100681249884220D11248816941F48F
:1006E00000718161816901F400710491816941F0B7
:1006F000040181618069694600F004000490402093
:10070000009003200190084800F082F80022114672
:10071000122000F0F3F9122000F0E2F905B000BD5C
:1007200000240140001002400008014070B504465A
:1007300090F8240001280DD0012084F824002046E0
:10074000FFF7FAFD02004FF0000005D084F8240006
:10075000104670BD022070BDA16A40F2012399438A
:1007600041F48071A1621F4D23681F49AB4218D12B
:100770000E6816F4702F14D0A66A46F48016A6628E
:100780000E68760505D5A66A26F4005646F480560E
:10079000A662A66AF6040AD5E66A26F00606E662AE
:1007A00006E0A66A26F48016A6625E68E9E7E062C3
:1007B00084F824006FF00200186020688368C3F397
:1007C0004243072B05D1A84208D1096811F4702FC4
:1007D00004D0816841F480118160B9E7816841F4F7
:1007E000A001F9E7002801400424014070B5044647
:1007F00000F018F90546601C02D004480078044453
:1008000000F010F9401BA042FAD370BD0000002098
:100810002DE9F84FDFF8C8910024A9F1040B234615
:100820000F2709F1040AABF1040ED1E00125A54020
:1008300006EA0502AA4276D1DFF8A8C14E68A6EB07
:100840000C0866452BD00DDC032E34D005DC36B306
:10085000012E19D0022E2FD11BE0112E16D0122EF0
:100860002AD119E0B8F5881F19D006DCB8F5803F09
:1008700015D0B8F5801F1FD111E0B8F5001F0ED0BC
:10088000B8F5041F18D10AE0CB6815E0CB681B1D32
:1008900012E0CB6808330FE0CB680C330CE08B68B8
:1008A0002BB1012B4FF0080303D0456104E0042372
:1008B00002E0056100E00023FF2A01D8064601E0BE
:1008C00000F104064FEA840501D9A5F12005D6F808
:1008D000008007FA05FC28EA0C0803FA05F548EA47
:1008E0000508C6F800804D68ED0070D53E4DAE6934
:1008F00046F00106AE61AD6924F0030605F001057E
:1009000000953A4D06EB050CDCF80850A607360FAB
:1009100007FA06F825EA0805DFF8D480404503D138
:100920004FF0000825E052E0DFF8C880404502D1D2
:100930004FF001081DE0DFF8C080404502D14FF0C4
:10094000020816E0DFF8B480404502D14FF00308FA
:100950000FE0DFF8AC80404502D14FF0040808E01A
:10096000DFF8A080404502D14FF0050801E04FF0CC
:10097000060808FA06F848EA0508CCF808804D6829
:10098000D9F80060ED024D4601D5164300E09643CC
:100990002E604D68DAF80060AD02554601D5164369
:1009A00000E096432E604D68DBF80060AD035D46C5
:1009B00001D5164300E096432E604D68DEF80060D6
:1009C000ED03754601D5164300E096432E60641C86
:1009D0000A681646E2407FF429AFBDE8F88F0000B0
:1009E0000804014000001110001002400000014006
:1009F00000080140000C01400010014000140140BB
:100A000000180140001C0140C26821EA02030A40AC
:100A100043EA0241016170470AB10161704709046C
:100A2000FBE70000014880687047000000000020DC
:100A300002488168027811448160704700000020FC
:100A4000074810B5016841F010010160032000F073
:100A500075F80F2000F006F800F024F8002010BD13
:100A60000020024070B50D4D04464FF47A7128788D
:100A7000B1FBF0F00A490968B1FBF0F000F052FB5D
:100A800048B9102C07D200222146501E00F036F83B
:100A900000206C6070BD012070BD000000000020CF
:100AA0000C0000200C4808B5816941F0010181610A
:100AB000816901F001010091C16941F08051C1617A
:100AC000C06900F0805000900448416821F0E06166
:100AD00041F00071416008BD00100240000001407B
:100AE000002809DB00F01F0201219140400980002D
:100AF00000F1E020C0F8001170470000F0B40E4B88
:100B00001B680C46C3F30223C3F10705042D00D96B
:100B10000425191D072901D2002300E0DB1E012650
:100B200006FA05F1491E214099409E40761E164066
:100B30003143F0BC00F019BD0CED00E0064900F0B7
:100B4000070208684FF6FF03184040EA0220034AF4
:100B500010430860704700000CED00E00000FA054B
:100B60002DE9F84305460078354CC00754D0E069BC
:100B70000026C00008D4E06940F08050E061E069E0
:100B8000012600F0805000902E480168C90512D45B
:100B90000168804641F480710160FFF743FF07461A
:100BA00005E000BFFFF73EFFC01B642823D8D8F83C
:100BB0000000C005F6D5206A10F4407021D0A98845
:100BC00001F4407181421CD0206A1F49012220F4A7
:100BD00040700A6000220A602062C00711D0FFF74F
:100BE00021FF074641F2883808E000BFFFF71AFFEF
:100BF000C11B414502D90320BDE8F883206A800764
:100C0000F4D5206A696820F44070084320621EB160
:100C1000E06920F08050E0612878800705D56068A1
:100C2000A96820F44040084360602878C00605D5D4
:100C30006068696920F48000084360600020DBE799
:100C40000010024000700040400442422DE9F0478D
:100C50000F46050061D0434E306800F00700B842EF
:100C600009D2306820F0070038433060306800F067
:100C70000700B84251D128683B4C810712D5400784
:100C800003D5606840F4E06060602878000703D511
:100C9000606840F4605060606068A96820F0F0000F
:100CA000084360602878C00728D06868012810D001
:100CB0002168022810D0890700292EDA616821F006
:100CC000030101436160FFF7ADFE804641F28839C0
:100CD0000DE021688903EFE78901EDE7FFF7A2FE48
:100CE000A0EB0801494502D90320BDE8F087606800
:100CF000696800F00C00B0EB810FEFD1306800F0B4
:100D00000700B8420BD9306820F007003843306044
:100D1000306800F00700B84201D00120E5E72878EC
:100D2000400705D56068E96820F4E060084360602A
:100D30002878000706D56068296920F4605040EAE9
:100D4000C100606000F038F86168084AC1F303111F
:100D5000515CC8400649086006480068FFF782FEFB
:100D60000020C2E70020024000100240FA150008EF
:100D70000C00002004000020044805490068496870
:100D8000044AC1F30221515CC84070470C000020A6
:100D9000001002400A160008044805490068496826
:100DA000044AC1F3C221515CC84070470C000020C6
:100DB000001002400A1600080E4A51680E4801F061
:100DC0000C03042B11D0082B0FD10C48C1F3834323
:100DD000C903C05C0AD55168084AC1F34041921E5C
:100DE000515C054A5043B0FBF1F070470449484359
:100DF000704700000010024000127A00EA15000857
:100E000000093D002DE9F84F040070D02078C04D56
:100E1000C00749D06868C0F38100012807D068681E
:100E2000C0F38100022809D16868C00306D528688C
:100E3000800339D560680028E7D035E06068B0F5F8
:100E4000803F0BD010B1B0F5A02F11D0286820F44E
:100E500080302860286820F4802002E0286840F470
:100E600080302860606890B1FFF7DCFD06460AE03C
:100E7000286840F480202860F0E700BFFFF7D2FD2B
:100E8000801B642873D828688003F7D50CE0FFF72F
:100E9000C9FD064605E000BFFFF7C4FD801B6428BE
:100EA000F0D828688003F7D420789A4E80074FF056
:100EB00001094FF0000839D5686810F00C0F07D011
:100EC0006868C0F38100022809D16868C00306D4AD
:100ED0002868800714D52069012808D110E020690E
:100EE000B0B1C6F80090FFF79DFD074605E00AE1A6
:100EF000FFF798FDC01B0228C4D828688007F7D5E3
:100F00002868616920F0F80040EAC10028600DE01F
:100F1000C6F80080FFF786FD074604E0FFF782FD74
:100F2000C01B022823D828688007F7D42078000740
:100F30002CD57948A169D9B1C0F80090FFF772FDAE
:100F4000074604E0FFF76EFDC01B02280FD8686A51
:100F50008007F7D571484FF4FA510068B0FBF1F003
:100F6000009000BF0098411E0091FAD20EE080E090
:100F7000C0F80080FFF756FD074604E0FFF752FD7A
:100F8000C01B022875D8686A8007F7D4207840070C
:100F900060D5E8690027C00008D4E86940F08050B7
:100FA000E861E869012700F0805000905C48016822
:100FB000C90513D40168834641F480710160FFF7CD
:100FC00031FD824606E000BFFFF72CFDA0EB0A00D2
:100FD00064284ED8DBF80000C005F5D5E06801288C
:100FE0000AD008B1052813D0286A20F00100286231
:100FF000286A20F0040002E0286A40F0010028621C
:10100000E06841F2883B98B1FFF70CFD82460BE0A7
:10101000286A40F004002862EEE700BFFFF702FDF7
:10102000A0EB0A0159455AD8286A8007F6D50CE08A
:10103000FFF7F8FC824605E0FFF7F4FCA0EB0A019D
:1010400059454CD8286A8007F6D41FB1E86920F0CA
:101050008050E861E06988B36968C1F381010229C1
:1010600044D00228C6F8608004D0FFF7DBFC0446B9
:1010700038E034E0FFF7D6FC074604E0FFF7D2FC87
:10108000C01B02282BD828688001F7D4206AB0F54D
:10109000803F05D16868A16820F40030084368608B
:1010A000D4E908010843696821F4741108436860B1
:1010B000C6F86090FFF7B6FC044606E025E000BFE6
:1010C000FFF7B0FC001B022809D828688001F7D57B
:1010D0001BE000BFFFF7A6FC001B022802D903207B
:1010E000BDE8F88F28688001F4D40EE00128F7D01D
:1010F0006868226A00F48031914204D1616A00F488
:101100007010884201D00120EAE70020E8E70000E3
:101110000010024000004242800442420C000020C5
:101120000070004010B5401EB0F1807F01D3012057
:1011300010BD4FF0E02460610F21601700F015FA38
:101140000020A06107202061002010BD70B50400C0
:1011500004D094F84100002510B106E0012070BDD4
:1011600084F84050204600F023F8242084F8410001
:101170002068C16821F40051C160204600F05CF98C
:101180002068016921F4904101612068416921F0E2
:101190002A0141612068C16841F40051C160656461
:1011A000202084F8410084F842006563002070BD6F
:1011B00030B585B000240094019402940394006833
:1011C0001449884224D11448816941F480418161E5
:1011D000816901F480410491816941F004018161D8
:1011E00080690E4D00F0040004904FF400700090F0
:1011F000022001900320039069462846FFF708FB70
:101200002815CDE90004694628460294FFF700FB43
:1012100005B030BD00380140001002400008014018
:101220002DE9F843044690F841001F4616460D4646
:10123000202802D00220BDE8F8837DB176B10020DD
:101240006064212084F84100FFF7ECFBA68480460F
:10125000E684A068B0F5805F02D003E00120EAE7F1
:10126000206910B12E4600250EE000260CE08021FA
:10127000204600F03DF9A0B9AEB116F8010B216887
:101280004860E08C401EE084E08C43464FF0000252
:1012900000970028EBD14FF04001204600F028F9DC
:1012A00030B10320C7E735F8020BC0F30800E6E7CA
:1012B000202084F841000020BDE7FEE73EB5002471
:1012C00011480094019402940E4984600160012544
:1012D0000573047505614FF460214460C161FFF737
:1012E0005FF908B1FFF768F80620CDE90005694607
:1012F00002940548FFF764F8002801D0FFF75CF876
:101300003EBD0000002401401000002070B586B0F2
:10131000002418480094019402940394816941F0D8
:1013200010018161816901F010010491816941F02E
:1013300020018161816901F020010491816941F0FE
:10134000040181618069012200F004000A4E550306
:10135000049029463046FFF75FFB01200095CDE958
:1013600001040220039069463046FFF751FA06B0A7
:1013700070BD000000100240001001400C4810B584
:101380000A4901604FF4E1314160002181600C2283
:10139000C160C0E904128161C161FFF7D7FE002876
:1013A00003D0BDE81040FFF707B810BD003801407A
:1013B00040000020FEE7FEE770477047FFF738BBAC
:1013C00030B595B028216846FEF720FF14210AA801
:1013D000FEF71CFF18210FA8FEF718FF01210804D3
:1013E000CDE900100025029502240491CDE90740C3
:1013F0004FF4E01009906846FFF704FD08B172B69B
:10140000FEE70AA90F2081E831004FF48060CDE9A2
:101410000D0502210AA8FFF719FC08B172B6FEE714
:101420000FA811950F94FFF79BFB002801D072B60F
:10143000FEE715B030BD704770B50446006801691D
:10144000E26821F44051114301612169A068084319
:10145000616908432168CA6841F20C639A430243F8
:10146000CA6020684169A26921F440711143416159
:101470001E492068884202D1FFF78EFC01E0FFF789
:101480007BFC00EBC00101EB00126068642180006E
:10149000B2FBF0F3B3FBF1F36FF018067343B2FB4A
:1014A000F0F5B2FBF0F605EB8305322303EB0515EF
:1014B000B5FBF1F5B6FBF1F605F0F00505EB061509
:1014C000B2FBF0F6B2FBF0F0B0FBF1F06FF01802F7
:1014D000504306EB800003EB0010B0FBF1F02168F5
:1014E00000F00F002844886070BD00000038014003
:1014F0002DE9F041984617460E460446069D27E022
:10150000681C25D02DB1FFF78DFAA0EB0800A8428A
:101510001ED920680C3050E8001F21F4D07140E83B
:101520000012002AF5D12068143050E8001F21F085
:10153000010140E80012002AF5D1202084F8410082
:1015400084F84200002084F840000320BDE8F081C8
:101550002068006836EA000004D00020B842CFD0EE
:101560000020F3E70120F9E7FEE70907090E00284C
:1015700004DB00F1E02080F80014704700F00F0059
:1015800000F1E02080F8141D7047000008B5FFF757
:1015900057FAFFF715FFFFF7B9FEFFF78FFEFFF7CA
:1015A000EDFE0E48FFF7C2F80D4E4FF6FF744FF4F4
:1015B00000554FF4FA770948FEF781FFADF80000B7
:1015C0002346012269460748FFF72AFE294630468E
:1015D000FFF71AFA3846FFF709F9ECE71000002088
:1015E000001001404000002001020203040506072C
:1015F00008090A0B0C0D0E0F10100000000000006F
:1016000000000102030406070809000000000102AF
:101610000304000034160008000000201000000041
:101620006C0100084416000810000020D8060000D5
:101630008801000801000000100000000000000008
:041640000024F4008E
:0400000508000131BD
:00000001FF
